{
  "contractName": "BridgeTwo",
  "abi": [
    {
      "inputs": [
        {
          "internalType": "address",
          "name": "_contractTwo",
          "type": "address"
        }
      ],
      "stateMutability": "nonpayable",
      "type": "constructor"
    },
    {
      "anonymous": false,
      "inputs": [
        {
          "indexed": true,
          "internalType": "address",
          "name": "previousOwner",
          "type": "address"
        },
        {
          "indexed": true,
          "internalType": "address",
          "name": "newOwner",
          "type": "address"
        }
      ],
      "name": "OwnershipTransferred",
      "type": "event"
    },
    {
      "anonymous": false,
      "inputs": [
        {
          "indexed": true,
          "internalType": "address",
          "name": "to",
          "type": "address"
        },
        {
          "indexed": false,
          "internalType": "uint256",
          "name": "amount",
          "type": "uint256"
        }
      ],
      "name": "TokensReleased",
      "type": "event"
    },
    {
      "inputs": [],
      "name": "contractTwo",
      "outputs": [
        {
          "internalType": "contract ContractTwo",
          "name": "",
          "type": "address"
        }
      ],
      "stateMutability": "view",
      "type": "function"
    },
    {
      "inputs": [],
      "name": "counterpartBridge",
      "outputs": [
        {
          "internalType": "address",
          "name": "",
          "type": "address"
        }
      ],
      "stateMutability": "view",
      "type": "function"
    },
    {
      "inputs": [],
      "name": "owner",
      "outputs": [
        {
          "internalType": "address",
          "name": "",
          "type": "address"
        }
      ],
      "stateMutability": "view",
      "type": "function"
    },
    {
      "inputs": [],
      "name": "renounceOwnership",
      "outputs": [],
      "stateMutability": "nonpayable",
      "type": "function"
    },
    {
      "inputs": [
        {
          "internalType": "address",
          "name": "newOwner",
          "type": "address"
        }
      ],
      "name": "transferOwnership",
      "outputs": [],
      "stateMutability": "nonpayable",
      "type": "function"
    },
    {
      "inputs": [
        {
          "internalType": "address",
          "name": "_counterpartBridge",
          "type": "address"
        }
      ],
      "name": "setCounterpartBridge",
      "outputs": [],
      "stateMutability": "nonpayable",
      "type": "function"
    },
    {
      "inputs": [
        {
          "internalType": "address",
          "name": "to",
          "type": "address"
        },
        {
          "internalType": "uint256",
          "name": "amount",
          "type": "uint256"
        }
      ],
      "name": "releaseTokens",
      "outputs": [],
      "stateMutability": "nonpayable",
      "type": "function"
    }
  ],
  "bytecode": "0x608060405234801561000f575f80fd5b506040516109bb3803806109bb833981810160405281019061003191906101b9565b61004d61004261009360201b60201c565b61009a60201b60201c565b8060015f6101000a81548173ffffffffffffffffffffffffffffffffffffffff021916908373ffffffffffffffffffffffffffffffffffffffff160217905550506101e4565b5f33905090565b5f805f9054906101000a900473ffffffffffffffffffffffffffffffffffffffff169050815f806101000a81548173ffffffffffffffffffffffffffffffffffffffff021916908373ffffffffffffffffffffffffffffffffffffffff1602179055508173ffffffffffffffffffffffffffffffffffffffff168173ffffffffffffffffffffffffffffffffffffffff167f8be0079c531659141344cd1fd0a4f28419497f9722a3daafe3b4186f6b6457e060405160405180910390a35050565b5f80fd5b5f73ffffffffffffffffffffffffffffffffffffffff82169050919050565b5f6101888261015f565b9050919050565b6101988161017e565b81146101a2575f80fd5b50565b5f815190506101b38161018f565b92915050565b5f602082840312156101ce576101cd61015b565b5b5f6101db848285016101a5565b91505092915050565b6107ca806101f15f395ff3fe608060405234801561000f575f80fd5b506004361061007b575f3560e01c80638da5cb5b116100595780638da5cb5b146100c5578063af0bc79a146100e3578063f2fde38b146100ff578063f40d71f11461011b5761007b565b80633a3485331461007f578063693e297e1461009d578063715018a6146100bb575b5f80fd5b610087610137565b60405161009491906104e8565b60405180910390f35b6100a561015c565b6040516100b2919061055c565b60405180910390f35b6100c3610181565b005b6100cd610194565b6040516100da91906104e8565b60405180910390f35b6100fd60048036038101906100f891906105a3565b6101bb565b005b610119600480360381019061011491906105a3565b610206565b005b61013560048036038101906101309190610601565b610288565b005b60025f9054906101000a900473ffffffffffffffffffffffffffffffffffffffff1681565b60015f9054906101000a900473ffffffffffffffffffffffffffffffffffffffff1681565b610189610363565b6101925f6103e1565b565b5f805f9054906101000a900473ffffffffffffffffffffffffffffffffffffffff16905090565b6101c3610363565b8060025f6101000a81548173ffffffffffffffffffffffffffffffffffffffff021916908373ffffffffffffffffffffffffffffffffffffffff16021790555050565b61020e610363565b5f73ffffffffffffffffffffffffffffffffffffffff168173ffffffffffffffffffffffffffffffffffffffff160361027c576040517f08c379a0000000000000000000000000000000000000000000000000000000008152600401610273906106bf565b60405180910390fd5b610285816103e1565b50565b60015f9054906101000a900473ffffffffffffffffffffffffffffffffffffffff1673ffffffffffffffffffffffffffffffffffffffff166340c10f1983836040518363ffffffff1660e01b81526004016102e49291906106ec565b5f604051808303815f87803b1580156102fb575f80fd5b505af115801561030d573d5f803e3d5ffd5b505050508173ffffffffffffffffffffffffffffffffffffffff167fc7798891864187665ac6dd119286e44ec13f014527aeeb2b8eb3fd413df93179826040516103579190610713565b60405180910390a25050565b61036b6104a2565b73ffffffffffffffffffffffffffffffffffffffff16610389610194565b73ffffffffffffffffffffffffffffffffffffffff16146103df576040517f08c379a00000000000000000000000000000000000000000000000000000000081526004016103d690610776565b60405180910390fd5b565b5f805f9054906101000a900473ffffffffffffffffffffffffffffffffffffffff169050815f806101000a81548173ffffffffffffffffffffffffffffffffffffffff021916908373ffffffffffffffffffffffffffffffffffffffff1602179055508173ffffffffffffffffffffffffffffffffffffffff168173ffffffffffffffffffffffffffffffffffffffff167f8be0079c531659141344cd1fd0a4f28419497f9722a3daafe3b4186f6b6457e060405160405180910390a35050565b5f33905090565b5f73ffffffffffffffffffffffffffffffffffffffff82169050919050565b5f6104d2826104a9565b9050919050565b6104e2816104c8565b82525050565b5f6020820190506104fb5f8301846104d9565b92915050565b5f819050919050565b5f61052461051f61051a846104a9565b610501565b6104a9565b9050919050565b5f6105358261050a565b9050919050565b5f6105468261052b565b9050919050565b6105568161053c565b82525050565b5f60208201905061056f5f83018461054d565b92915050565b5f80fd5b610582816104c8565b811461058c575f80fd5b50565b5f8135905061059d81610579565b92915050565b5f602082840312156105b8576105b7610575565b5b5f6105c58482850161058f565b91505092915050565b5f819050919050565b6105e0816105ce565b81146105ea575f80fd5b50565b5f813590506105fb816105d7565b92915050565b5f806040838503121561061757610616610575565b5b5f6106248582860161058f565b9250506020610635858286016105ed565b9150509250929050565b5f82825260208201905092915050565b7f4f776e61626c653a206e6577206f776e657220697320746865207a65726f20615f8201527f6464726573730000000000000000000000000000000000000000000000000000602082015250565b5f6106a960268361063f565b91506106b48261064f565b604082019050919050565b5f6020820190508181035f8301526106d68161069d565b9050919050565b6106e6816105ce565b82525050565b5f6040820190506106ff5f8301856104d9565b61070c60208301846106dd565b9392505050565b5f6020820190506107265f8301846106dd565b92915050565b7f4f776e61626c653a2063616c6c6572206973206e6f7420746865206f776e65725f82015250565b5f61076060208361063f565b915061076b8261072c565b602082019050919050565b5f6020820190508181035f83015261078d81610754565b905091905056fea26469706673582212200d3b45175926105a014ba93b7201db1c1d599529efab914cff02428a772a1d2564736f6c63430008150033",
  "immutableReferences": {},
  "source": "// SPDX-License-Identifier: MIT\r\npragma solidity ^0.8.0;\r\n\r\nimport \"./ContractTwo.sol\";\r\nimport \"@openzeppelin/contracts/access/Ownable.sol\";\r\n\r\ncontract BridgeTwo is Ownable {\r\n    ContractTwo public contractTwo;\r\n    address public counterpartBridge;\r\n\r\n    event TokensReleased(address indexed to, uint256 amount);\r\n\r\n    constructor(address _contractTwo) {\r\n        contractTwo = ContractTwo(_contractTwo);\r\n    }\r\n\r\n    function setCounterpartBridge(address _counterpartBridge)\r\n        external\r\n        onlyOwner\r\n    {\r\n        counterpartBridge = _counterpartBridge;\r\n    }\r\n\r\n    function releaseTokens(address to, uint256 amount) external {\r\n        // require(msg.sender == counterpartBridge, \"Only counterpart bridge can release tokens\");\r\n        contractTwo.mint(to, amount); // Call the mint function of ContractTwo\r\n        emit TokensReleased(to, amount);\r\n    }\r\n}\r\n",
  "sourcePath": "C:\\Users\\shehr\\OneDrive\\Desktop\\bcvd4028\\Assignment1_BridgeContract\\contracts\\BridgeTwo.sol",
  "compiler": {
    "name": "solc",
    "version": "0.8.21+commit.d9974bed.Emscripten.clang"
  },
  "schemaVersion": "3.4.16",
  "updatedAt": "2023-10-02T16:10:39.154Z",
  "devdoc": {
    "kind": "dev",
    "methods": {
      "owner()": {
        "details": "Returns the address of the current owner."
      },
      "renounceOwnership()": {
        "details": "Leaves the contract without owner. It will not be possible to call `onlyOwner` functions. Can only be called by the current owner. NOTE: Renouncing ownership will leave the contract without an owner, thereby disabling any functionality that is only available to the owner."
      },
      "transferOwnership(address)": {
        "details": "Transfers ownership of the contract to a new account (`newOwner`). Can only be called by the current owner."
      }
    },
    "version": 1
  },
  "userdoc": {
    "kind": "user",
    "methods": {},
    "version": 1
  }
}