{
  "contractName": "BridgeOne",
  "abi": [
    {
      "inputs": [
        {
          "internalType": "address",
          "name": "_token",
          "type": "address"
        }
      ],
      "stateMutability": "nonpayable",
      "type": "constructor"
    },
    {
      "anonymous": false,
      "inputs": [
        {
          "indexed": true,
          "internalType": "address",
          "name": "previousOwner",
          "type": "address"
        },
        {
          "indexed": true,
          "internalType": "address",
          "name": "newOwner",
          "type": "address"
        }
      ],
      "name": "OwnershipTransferred",
      "type": "event"
    },
    {
      "anonymous": false,
      "inputs": [
        {
          "indexed": true,
          "internalType": "address",
          "name": "from",
          "type": "address"
        },
        {
          "indexed": false,
          "internalType": "uint256",
          "name": "amount",
          "type": "uint256"
        }
      ],
      "name": "TokensLocked",
      "type": "event"
    },
    {
      "inputs": [],
      "name": "counterpartBridge",
      "outputs": [
        {
          "internalType": "address",
          "name": "",
          "type": "address"
        }
      ],
      "stateMutability": "view",
      "type": "function"
    },
    {
      "inputs": [],
      "name": "owner",
      "outputs": [
        {
          "internalType": "address",
          "name": "",
          "type": "address"
        }
      ],
      "stateMutability": "view",
      "type": "function"
    },
    {
      "inputs": [],
      "name": "renounceOwnership",
      "outputs": [],
      "stateMutability": "nonpayable",
      "type": "function"
    },
    {
      "inputs": [],
      "name": "token",
      "outputs": [
        {
          "internalType": "contract IERC20",
          "name": "",
          "type": "address"
        }
      ],
      "stateMutability": "view",
      "type": "function"
    },
    {
      "inputs": [
        {
          "internalType": "address",
          "name": "newOwner",
          "type": "address"
        }
      ],
      "name": "transferOwnership",
      "outputs": [],
      "stateMutability": "nonpayable",
      "type": "function"
    },
    {
      "inputs": [
        {
          "internalType": "address",
          "name": "_counterpartBridge",
          "type": "address"
        }
      ],
      "name": "setCounterpartBridge",
      "outputs": [],
      "stateMutability": "nonpayable",
      "type": "function"
    },
    {
      "inputs": [
        {
          "internalType": "uint256",
          "name": "amount",
          "type": "uint256"
        }
      ],
      "name": "lockTokens",
      "outputs": [],
      "stateMutability": "nonpayable",
      "type": "function"
    },
    {
      "inputs": [
        {
          "internalType": "address",
          "name": "to",
          "type": "address"
        },
        {
          "internalType": "uint256",
          "name": "amount",
          "type": "uint256"
        }
      ],
      "name": "releaseTokens",
      "outputs": [],
      "stateMutability": "nonpayable",
      "type": "function"
    }
  ],
  "bytecode": "0x608060405234801561000f575f80fd5b50604051610c3c380380610c3c833981810160405281019061003191906101b9565b61004d61004261009360201b60201c565b61009a60201b60201c565b8060015f6101000a81548173ffffffffffffffffffffffffffffffffffffffff021916908373ffffffffffffffffffffffffffffffffffffffff160217905550506101e4565b5f33905090565b5f805f9054906101000a900473ffffffffffffffffffffffffffffffffffffffff169050815f806101000a81548173ffffffffffffffffffffffffffffffffffffffff021916908373ffffffffffffffffffffffffffffffffffffffff1602179055508173ffffffffffffffffffffffffffffffffffffffff168173ffffffffffffffffffffffffffffffffffffffff167f8be0079c531659141344cd1fd0a4f28419497f9722a3daafe3b4186f6b6457e060405160405180910390a35050565b5f80fd5b5f73ffffffffffffffffffffffffffffffffffffffff82169050919050565b5f6101888261015f565b9050919050565b6101988161017e565b81146101a2575f80fd5b50565b5f815190506101b38161018f565b92915050565b5f602082840312156101ce576101cd61015b565b5b5f6101db848285016101a5565b91505092915050565b610a4b806101f15f395ff3fe608060405234801561000f575f80fd5b5060043610610086575f3560e01c8063af0bc79a11610059578063af0bc79a146100ec578063f2fde38b14610108578063f40d71f114610124578063fc0c546a1461014057610086565b80633a3485331461008a5780636e27d889146100a8578063715018a6146100c45780638da5cb5b146100ce575b5f80fd5b61009261015e565b60405161009f9190610641565b60405180910390f35b6100c260048036038101906100bd9190610691565b610183565b005b6100cc6102b1565b005b6100d66102c4565b6040516100e39190610641565b60405180910390f35b610106600480360381019061010191906106e6565b6102eb565b005b610122600480360381019061011d91906106e6565b610336565b005b61013e60048036038101906101399190610711565b6103b8565b005b610148610497565b60405161015591906107aa565b60405180910390f35b60025f9054906101000a900473ffffffffffffffffffffffffffffffffffffffff1681565b60015f9054906101000a900473ffffffffffffffffffffffffffffffffffffffff1673ffffffffffffffffffffffffffffffffffffffff166323b872dd3330846040518463ffffffff1660e01b81526004016101e1939291906107d2565b6020604051808303815f875af11580156101fd573d5f803e3d5ffd5b505050506040513d601f19601f82011682018060405250810190610221919061083c565b610260576040517f08c379a0000000000000000000000000000000000000000000000000000000008152600401610257906108c1565b60405180910390fd5b3373ffffffffffffffffffffffffffffffffffffffff167fac87f20a77d28ee8bbb58ec87ea8fa968b3393efae1a368fd50b767c2847391c826040516102a691906108df565b60405180910390a250565b6102b96104bc565b6102c25f61053a565b565b5f805f9054906101000a900473ffffffffffffffffffffffffffffffffffffffff16905090565b6102f36104bc565b8060025f6101000a81548173ffffffffffffffffffffffffffffffffffffffff021916908373ffffffffffffffffffffffffffffffffffffffff16021790555050565b61033e6104bc565b5f73ffffffffffffffffffffffffffffffffffffffff168173ffffffffffffffffffffffffffffffffffffffff16036103ac576040517f08c379a00000000000000000000000000000000000000000000000000000000081526004016103a390610968565b60405180910390fd5b6103b58161053a565b50565b60015f9054906101000a900473ffffffffffffffffffffffffffffffffffffffff1673ffffffffffffffffffffffffffffffffffffffff1663a9059cbb83836040518363ffffffff1660e01b8152600401610414929190610986565b6020604051808303815f875af1158015610430573d5f803e3d5ffd5b505050506040513d601f19601f82011682018060405250810190610454919061083c565b610493576040517f08c379a000000000000000000000000000000000000000000000000000000000815260040161048a906108c1565b60405180910390fd5b5050565b60015f9054906101000a900473ffffffffffffffffffffffffffffffffffffffff1681565b6104c46105fb565b73ffffffffffffffffffffffffffffffffffffffff166104e26102c4565b73ffffffffffffffffffffffffffffffffffffffff1614610538576040517f08c379a000000000000000000000000000000000000000000000000000000000815260040161052f906109f7565b60405180910390fd5b565b5f805f9054906101000a900473ffffffffffffffffffffffffffffffffffffffff169050815f806101000a81548173ffffffffffffffffffffffffffffffffffffffff021916908373ffffffffffffffffffffffffffffffffffffffff1602179055508173ffffffffffffffffffffffffffffffffffffffff168173ffffffffffffffffffffffffffffffffffffffff167f8be0079c531659141344cd1fd0a4f28419497f9722a3daafe3b4186f6b6457e060405160405180910390a35050565b5f33905090565b5f73ffffffffffffffffffffffffffffffffffffffff82169050919050565b5f61062b82610602565b9050919050565b61063b81610621565b82525050565b5f6020820190506106545f830184610632565b92915050565b5f80fd5b5f819050919050565b6106708161065e565b811461067a575f80fd5b50565b5f8135905061068b81610667565b92915050565b5f602082840312156106a6576106a561065a565b5b5f6106b38482850161067d565b91505092915050565b6106c581610621565b81146106cf575f80fd5b50565b5f813590506106e0816106bc565b92915050565b5f602082840312156106fb576106fa61065a565b5b5f610708848285016106d2565b91505092915050565b5f80604083850312156107275761072661065a565b5b5f610734858286016106d2565b92505060206107458582860161067d565b9150509250929050565b5f819050919050565b5f61077261076d61076884610602565b61074f565b610602565b9050919050565b5f61078382610758565b9050919050565b5f61079482610779565b9050919050565b6107a48161078a565b82525050565b5f6020820190506107bd5f83018461079b565b92915050565b6107cc8161065e565b82525050565b5f6060820190506107e55f830186610632565b6107f26020830185610632565b6107ff60408301846107c3565b949350505050565b5f8115159050919050565b61081b81610807565b8114610825575f80fd5b50565b5f8151905061083681610812565b92915050565b5f602082840312156108515761085061065a565b5b5f61085e84828501610828565b91505092915050565b5f82825260208201905092915050565b7f5472616e73666572206661696c656400000000000000000000000000000000005f82015250565b5f6108ab600f83610867565b91506108b682610877565b602082019050919050565b5f6020820190508181035f8301526108d88161089f565b9050919050565b5f6020820190506108f25f8301846107c3565b92915050565b7f4f776e61626c653a206e6577206f776e657220697320746865207a65726f20615f8201527f6464726573730000000000000000000000000000000000000000000000000000602082015250565b5f610952602683610867565b915061095d826108f8565b604082019050919050565b5f6020820190508181035f83015261097f81610946565b9050919050565b5f6040820190506109995f830185610632565b6109a660208301846107c3565b9392505050565b7f4f776e61626c653a2063616c6c6572206973206e6f7420746865206f776e65725f82015250565b5f6109e1602083610867565b91506109ec826109ad565b602082019050919050565b5f6020820190508181035f830152610a0e816109d5565b905091905056fea26469706673582212201cd30468bb09795c91d64c99225a8fa99f5c578f05b80e422269d7b5980255a064736f6c63430008150033",
  "immutableReferences": {},
  "source": "// SPDX-License-Identifier: MIT\r\npragma solidity ^0.8.0;\r\n\r\nimport \"@openzeppelin/contracts/token/ERC20/IERC20.sol\";\r\nimport \"@openzeppelin/contracts/access/Ownable.sol\";\r\n\r\ncontract BridgeOne is Ownable {\r\n    IERC20 public token;\r\n    address public counterpartBridge;\r\n\r\n    // Event to notify that tokens are locked and can be processed by the off-chain script\r\n    event TokensLocked(address indexed from, uint256 amount);\r\n\r\n    constructor(address _token) {\r\n        token = IERC20(_token);\r\n    }\r\n\r\n    function setCounterpartBridge(address _counterpartBridge)\r\n        external\r\n        onlyOwner\r\n    {\r\n        counterpartBridge = _counterpartBridge;\r\n    }\r\n\r\n    function lockTokens(uint256 amount) external {\r\n        require(\r\n            token.transferFrom(msg.sender, address(this), amount),\r\n            \"Transfer failed\"\r\n        );\r\n        emit TokensLocked(msg.sender, amount); // Emitting event after locking tokens\r\n    }\r\n\r\n    function releaseTokens(address to, uint256 amount) external {\r\n        // require(msg.sender == counterpartBridge, \"Only counterpart bridge can release tokens\");\r\n        require(token.transfer(to, amount), \"Transfer failed\");\r\n    }\r\n}\r\n",
  "sourcePath": "C:\\Users\\shehr\\OneDrive\\Desktop\\bcvd4028\\Assignment1_BridgeContract\\contracts\\BridgeOne.sol",
  "compiler": {
    "name": "solc",
    "version": "0.8.21+commit.d9974bed.Emscripten.clang"
  },
  "schemaVersion": "3.4.16",
  "updatedAt": "2023-10-02T16:10:39.145Z",
  "devdoc": {
    "kind": "dev",
    "methods": {
      "owner()": {
        "details": "Returns the address of the current owner."
      },
      "renounceOwnership()": {
        "details": "Leaves the contract without owner. It will not be possible to call `onlyOwner` functions. Can only be called by the current owner. NOTE: Renouncing ownership will leave the contract without an owner, thereby disabling any functionality that is only available to the owner."
      },
      "transferOwnership(address)": {
        "details": "Transfers ownership of the contract to a new account (`newOwner`). Can only be called by the current owner."
      }
    },
    "version": 1
  },
  "userdoc": {
    "kind": "user",
    "methods": {},
    "version": 1
  }
}