{
  "contractName": "ContractTwo",
  "abi": [
    {
      "inputs": [],
      "stateMutability": "nonpayable",
      "type": "constructor"
    },
    {
      "anonymous": false,
      "inputs": [
        {
          "indexed": true,
          "internalType": "address",
          "name": "owner",
          "type": "address"
        },
        {
          "indexed": true,
          "internalType": "address",
          "name": "spender",
          "type": "address"
        },
        {
          "indexed": false,
          "internalType": "uint256",
          "name": "value",
          "type": "uint256"
        }
      ],
      "name": "Approval",
      "type": "event"
    },
    {
      "anonymous": false,
      "inputs": [
        {
          "indexed": true,
          "internalType": "address",
          "name": "previousOwner",
          "type": "address"
        },
        {
          "indexed": true,
          "internalType": "address",
          "name": "newOwner",
          "type": "address"
        }
      ],
      "name": "OwnershipTransferred",
      "type": "event"
    },
    {
      "anonymous": false,
      "inputs": [
        {
          "indexed": true,
          "internalType": "address",
          "name": "from",
          "type": "address"
        },
        {
          "indexed": true,
          "internalType": "address",
          "name": "to",
          "type": "address"
        },
        {
          "indexed": false,
          "internalType": "uint256",
          "name": "value",
          "type": "uint256"
        }
      ],
      "name": "Transfer",
      "type": "event"
    },
    {
      "inputs": [
        {
          "internalType": "address",
          "name": "owner",
          "type": "address"
        },
        {
          "internalType": "address",
          "name": "spender",
          "type": "address"
        }
      ],
      "name": "allowance",
      "outputs": [
        {
          "internalType": "uint256",
          "name": "",
          "type": "uint256"
        }
      ],
      "stateMutability": "view",
      "type": "function"
    },
    {
      "inputs": [
        {
          "internalType": "address",
          "name": "spender",
          "type": "address"
        },
        {
          "internalType": "uint256",
          "name": "amount",
          "type": "uint256"
        }
      ],
      "name": "approve",
      "outputs": [
        {
          "internalType": "bool",
          "name": "",
          "type": "bool"
        }
      ],
      "stateMutability": "nonpayable",
      "type": "function"
    },
    {
      "inputs": [
        {
          "internalType": "address",
          "name": "account",
          "type": "address"
        }
      ],
      "name": "balanceOf",
      "outputs": [
        {
          "internalType": "uint256",
          "name": "",
          "type": "uint256"
        }
      ],
      "stateMutability": "view",
      "type": "function"
    },
    {
      "inputs": [],
      "name": "bridgeTwoAddress",
      "outputs": [
        {
          "internalType": "address",
          "name": "",
          "type": "address"
        }
      ],
      "stateMutability": "view",
      "type": "function"
    },
    {
      "inputs": [],
      "name": "decimals",
      "outputs": [
        {
          "internalType": "uint8",
          "name": "",
          "type": "uint8"
        }
      ],
      "stateMutability": "view",
      "type": "function"
    },
    {
      "inputs": [
        {
          "internalType": "address",
          "name": "spender",
          "type": "address"
        },
        {
          "internalType": "uint256",
          "name": "subtractedValue",
          "type": "uint256"
        }
      ],
      "name": "decreaseAllowance",
      "outputs": [
        {
          "internalType": "bool",
          "name": "",
          "type": "bool"
        }
      ],
      "stateMutability": "nonpayable",
      "type": "function"
    },
    {
      "inputs": [
        {
          "internalType": "address",
          "name": "spender",
          "type": "address"
        },
        {
          "internalType": "uint256",
          "name": "addedValue",
          "type": "uint256"
        }
      ],
      "name": "increaseAllowance",
      "outputs": [
        {
          "internalType": "bool",
          "name": "",
          "type": "bool"
        }
      ],
      "stateMutability": "nonpayable",
      "type": "function"
    },
    {
      "inputs": [],
      "name": "name",
      "outputs": [
        {
          "internalType": "string",
          "name": "",
          "type": "string"
        }
      ],
      "stateMutability": "view",
      "type": "function"
    },
    {
      "inputs": [],
      "name": "owner",
      "outputs": [
        {
          "internalType": "address",
          "name": "",
          "type": "address"
        }
      ],
      "stateMutability": "view",
      "type": "function"
    },
    {
      "inputs": [],
      "name": "renounceOwnership",
      "outputs": [],
      "stateMutability": "nonpayable",
      "type": "function"
    },
    {
      "inputs": [],
      "name": "symbol",
      "outputs": [
        {
          "internalType": "string",
          "name": "",
          "type": "string"
        }
      ],
      "stateMutability": "view",
      "type": "function"
    },
    {
      "inputs": [],
      "name": "totalSupply",
      "outputs": [
        {
          "internalType": "uint256",
          "name": "",
          "type": "uint256"
        }
      ],
      "stateMutability": "view",
      "type": "function"
    },
    {
      "inputs": [
        {
          "internalType": "address",
          "name": "to",
          "type": "address"
        },
        {
          "internalType": "uint256",
          "name": "amount",
          "type": "uint256"
        }
      ],
      "name": "transfer",
      "outputs": [
        {
          "internalType": "bool",
          "name": "",
          "type": "bool"
        }
      ],
      "stateMutability": "nonpayable",
      "type": "function"
    },
    {
      "inputs": [
        {
          "internalType": "address",
          "name": "from",
          "type": "address"
        },
        {
          "internalType": "address",
          "name": "to",
          "type": "address"
        },
        {
          "internalType": "uint256",
          "name": "amount",
          "type": "uint256"
        }
      ],
      "name": "transferFrom",
      "outputs": [
        {
          "internalType": "bool",
          "name": "",
          "type": "bool"
        }
      ],
      "stateMutability": "nonpayable",
      "type": "function"
    },
    {
      "inputs": [
        {
          "internalType": "address",
          "name": "newOwner",
          "type": "address"
        }
      ],
      "name": "transferOwnership",
      "outputs": [],
      "stateMutability": "nonpayable",
      "type": "function"
    },
    {
      "inputs": [
        {
          "internalType": "address",
          "name": "_bridgeTwoAddress",
          "type": "address"
        }
      ],
      "name": "setBridgeAddress",
      "outputs": [],
      "stateMutability": "nonpayable",
      "type": "function"
    },
    {
      "inputs": [
        {
          "internalType": "address",
          "name": "to",
          "type": "address"
        },
        {
          "internalType": "uint256",
          "name": "amount",
          "type": "uint256"
        }
      ],
      "name": "mint",
      "outputs": [],
      "stateMutability": "nonpayable",
      "type": "function"
    }
  ],
  "bytecode": "0x608060405234801562000010575f80fd5b506040518060400160405280600b81526020017f436f6e747261637454776f0000000000000000000000000000000000000000008152506040518060400160405280600281526020017f433200000000000000000000000000000000000000000000000000000000000081525081600390816200008e9190620003f7565b508060049081620000a09190620003f7565b505050620000c3620000b7620000c960201b60201c565b620000d060201b60201c565b620004db565b5f33905090565b5f60055f9054906101000a900473ffffffffffffffffffffffffffffffffffffffff1690508160055f6101000a81548173ffffffffffffffffffffffffffffffffffffffff021916908373ffffffffffffffffffffffffffffffffffffffff1602179055508173ffffffffffffffffffffffffffffffffffffffff168173ffffffffffffffffffffffffffffffffffffffff167f8be0079c531659141344cd1fd0a4f28419497f9722a3daafe3b4186f6b6457e060405160405180910390a35050565b5f81519050919050565b7f4e487b71000000000000000000000000000000000000000000000000000000005f52604160045260245ffd5b7f4e487b71000000000000000000000000000000000000000000000000000000005f52602260045260245ffd5b5f60028204905060018216806200020f57607f821691505b602082108103620002255762000224620001ca565b5b50919050565b5f819050815f5260205f209050919050565b5f6020601f8301049050919050565b5f82821b905092915050565b5f60088302620002897fffffffffffffffffffffffffffffffffffffffffffffffffffffffffffffffff826200024c565b6200029586836200024c565b95508019841693508086168417925050509392505050565b5f819050919050565b5f819050919050565b5f620002df620002d9620002d384620002ad565b620002b6565b620002ad565b9050919050565b5f819050919050565b620002fa83620002bf565b620003126200030982620002e6565b84845462000258565b825550505050565b5f90565b620003286200031a565b62000335818484620002ef565b505050565b5b818110156200035c57620003505f826200031e565b6001810190506200033b565b5050565b601f821115620003ab5762000375816200022b565b62000380846200023d565b8101602085101562000390578190505b620003a86200039f856200023d565b8301826200033a565b50505b505050565b5f82821c905092915050565b5f620003cd5f1984600802620003b0565b1980831691505092915050565b5f620003e78383620003bc565b9150826002028217905092915050565b620004028262000193565b67ffffffffffffffff8111156200041e576200041d6200019d565b5b6200042a8254620001f7565b6200043782828562000360565b5f60209050601f8311600181146200046d575f841562000458578287015190505b620004648582620003da565b865550620004d3565b601f1984166200047d866200022b565b5f5b82811015620004a6578489015182556001820191506020850194506020810190506200047f565b86831015620004c65784890151620004c2601f891682620003bc565b8355505b6001600288020188555050505b505050505050565b61192c80620004e95f395ff3fe608060405234801561000f575f80fd5b5060043610610109575f3560e01c806370a08231116100a057806395d89b411161006f57806395d89b41146102a5578063a457c2d7146102c3578063a9059cbb146102f3578063dd62ed3e14610323578063f2fde38b1461035357610109565b806370a0823114610231578063715018a6146102615780637f5a22f91461026b5780638da5cb5b1461028757610109565b8063313ce567116100dc578063313ce567146101a957806339509351146101c757806340c10f19146101f75780636085d8f81461021357610109565b806306fdde031461010d578063095ea7b31461012b57806318160ddd1461015b57806323b872dd14610179575b5f80fd5b61011561036f565b6040516101229190611032565b60405180910390f35b610145600480360381019061014091906110e3565b6103ff565b604051610152919061113b565b60405180910390f35b610163610421565b6040516101709190611163565b60405180910390f35b610193600480360381019061018e919061117c565b61042a565b6040516101a0919061113b565b60405180910390f35b6101b1610458565b6040516101be91906111e7565b60405180910390f35b6101e160048036038101906101dc91906110e3565b610460565b6040516101ee919061113b565b60405180910390f35b610211600480360381019061020c91906110e3565b610496565b005b61021b610533565b604051610228919061120f565b60405180910390f35b61024b60048036038101906102469190611228565b610558565b6040516102589190611163565b60405180910390f35b61026961059d565b005b61028560048036038101906102809190611228565b6105b0565b005b61028f6105fb565b60405161029c919061120f565b60405180910390f35b6102ad610623565b6040516102ba9190611032565b60405180910390f35b6102dd60048036038101906102d891906110e3565b6106b3565b6040516102ea919061113b565b60405180910390f35b61030d600480360381019061030891906110e3565b610728565b60405161031a919061113b565b60405180910390f35b61033d60048036038101906103389190611253565b61074a565b60405161034a9190611163565b60405180910390f35b61036d60048036038101906103689190611228565b6107cc565b005b60606003805461037e906112be565b80601f01602080910402602001604051908101604052809291908181526020018280546103aa906112be565b80156103f55780601f106103cc576101008083540402835291602001916103f5565b820191905f5260205f20905b8154815290600101906020018083116103d857829003601f168201915b5050505050905090565b5f8061040961084e565b9050610416818585610855565b600191505092915050565b5f600254905090565b5f8061043461084e565b9050610441858285610a18565b61044c858585610aa3565b60019150509392505050565b5f6012905090565b5f8061046a61084e565b905061048b81858561047c858961074a565b610486919061131b565b610855565b600191505092915050565b60065f9054906101000a900473ffffffffffffffffffffffffffffffffffffffff1673ffffffffffffffffffffffffffffffffffffffff163373ffffffffffffffffffffffffffffffffffffffff1614610525576040517f08c379a000000000000000000000000000000000000000000000000000000000815260040161051c906113be565b60405180910390fd5b61052f8282610d0f565b5050565b60065f9054906101000a900473ffffffffffffffffffffffffffffffffffffffff1681565b5f805f8373ffffffffffffffffffffffffffffffffffffffff1673ffffffffffffffffffffffffffffffffffffffff1681526020019081526020015f20549050919050565b6105a5610e5d565b6105ae5f610edb565b565b6105b8610e5d565b8060065f6101000a81548173ffffffffffffffffffffffffffffffffffffffff021916908373ffffffffffffffffffffffffffffffffffffffff16021790555050565b5f60055f9054906101000a900473ffffffffffffffffffffffffffffffffffffffff16905090565b606060048054610632906112be565b80601f016020809104026020016040519081016040528092919081815260200182805461065e906112be565b80156106a95780601f10610680576101008083540402835291602001916106a9565b820191905f5260205f20905b81548152906001019060200180831161068c57829003601f168201915b5050505050905090565b5f806106bd61084e565b90505f6106ca828661074a565b90508381101561070f576040517f08c379a00000000000000000000000000000000000000000000000000000000081526004016107069061144c565b60405180910390fd5b61071c8286868403610855565b60019250505092915050565b5f8061073261084e565b905061073f818585610aa3565b600191505092915050565b5f60015f8473ffffffffffffffffffffffffffffffffffffffff1673ffffffffffffffffffffffffffffffffffffffff1681526020019081526020015f205f8373ffffffffffffffffffffffffffffffffffffffff1673ffffffffffffffffffffffffffffffffffffffff1681526020019081526020015f2054905092915050565b6107d4610e5d565b5f73ffffffffffffffffffffffffffffffffffffffff168173ffffffffffffffffffffffffffffffffffffffff1603610842576040517f08c379a0000000000000000000000000000000000000000000000000000000008152600401610839906114da565b60405180910390fd5b61084b81610edb565b50565b5f33905090565b5f73ffffffffffffffffffffffffffffffffffffffff168373ffffffffffffffffffffffffffffffffffffffff16036108c3576040517f08c379a00000000000000000000000000000000000000000000000000000000081526004016108ba90611568565b60405180910390fd5b5f73ffffffffffffffffffffffffffffffffffffffff168273ffffffffffffffffffffffffffffffffffffffff1603610931576040517f08c379a0000000000000000000000000000000000000000000000000000000008152600401610928906115f6565b60405180910390fd5b8060015f8573ffffffffffffffffffffffffffffffffffffffff1673ffffffffffffffffffffffffffffffffffffffff1681526020019081526020015f205f8473ffffffffffffffffffffffffffffffffffffffff1673ffffffffffffffffffffffffffffffffffffffff1681526020019081526020015f20819055508173ffffffffffffffffffffffffffffffffffffffff168373ffffffffffffffffffffffffffffffffffffffff167f8c5be1e5ebec7d5bd14f71427d1e84f3dd0314c0f7b2291e5b200ac8c7c3b92583604051610a0b9190611163565b60405180910390a3505050565b5f610a23848461074a565b90507fffffffffffffffffffffffffffffffffffffffffffffffffffffffffffffffff8114610a9d5781811015610a8f576040517f08c379a0000000000000000000000000000000000000000000000000000000008152600401610a869061165e565b60405180910390fd5b610a9c8484848403610855565b5b50505050565b5f73ffffffffffffffffffffffffffffffffffffffff168373ffffffffffffffffffffffffffffffffffffffff1603610b11576040517f08c379a0000000000000000000000000000000000000000000000000000000008152600401610b08906116ec565b60405180910390fd5b5f73ffffffffffffffffffffffffffffffffffffffff168273ffffffffffffffffffffffffffffffffffffffff1603610b7f576040517f08c379a0000000000000000000000000000000000000000000000000000000008152600401610b769061177a565b60405180910390fd5b610b8a838383610f9e565b5f805f8573ffffffffffffffffffffffffffffffffffffffff1673ffffffffffffffffffffffffffffffffffffffff1681526020019081526020015f2054905081811015610c0d576040517f08c379a0000000000000000000000000000000000000000000000000000000008152600401610c0490611808565b60405180910390fd5b8181035f808673ffffffffffffffffffffffffffffffffffffffff1673ffffffffffffffffffffffffffffffffffffffff1681526020019081526020015f2081905550815f808573ffffffffffffffffffffffffffffffffffffffff1673ffffffffffffffffffffffffffffffffffffffff1681526020019081526020015f205f82825401925050819055508273ffffffffffffffffffffffffffffffffffffffff168473ffffffffffffffffffffffffffffffffffffffff167fddf252ad1be2c89b69c2b068fc378daa952ba7f163c4a11628f55a4df523b3ef84604051610cf69190611163565b60405180910390a3610d09848484610fa3565b50505050565b5f73ffffffffffffffffffffffffffffffffffffffff168273ffffffffffffffffffffffffffffffffffffffff1603610d7d576040517f08c379a0000000000000000000000000000000000000000000000000000000008152600401610d7490611870565b60405180910390fd5b610d885f8383610f9e565b8060025f828254610d99919061131b565b92505081905550805f808473ffffffffffffffffffffffffffffffffffffffff1673ffffffffffffffffffffffffffffffffffffffff1681526020019081526020015f205f82825401925050819055508173ffffffffffffffffffffffffffffffffffffffff165f73ffffffffffffffffffffffffffffffffffffffff167fddf252ad1be2c89b69c2b068fc378daa952ba7f163c4a11628f55a4df523b3ef83604051610e469190611163565b60405180910390a3610e595f8383610fa3565b5050565b610e6561084e565b73ffffffffffffffffffffffffffffffffffffffff16610e836105fb565b73ffffffffffffffffffffffffffffffffffffffff1614610ed9576040517f08c379a0000000000000000000000000000000000000000000000000000000008152600401610ed0906118d8565b60405180910390fd5b565b5f60055f9054906101000a900473ffffffffffffffffffffffffffffffffffffffff1690508160055f6101000a81548173ffffffffffffffffffffffffffffffffffffffff021916908373ffffffffffffffffffffffffffffffffffffffff1602179055508173ffffffffffffffffffffffffffffffffffffffff168173ffffffffffffffffffffffffffffffffffffffff167f8be0079c531659141344cd1fd0a4f28419497f9722a3daafe3b4186f6b6457e060405160405180910390a35050565b505050565b505050565b5f81519050919050565b5f82825260208201905092915050565b5f5b83811015610fdf578082015181840152602081019050610fc4565b5f8484015250505050565b5f601f19601f8301169050919050565b5f61100482610fa8565b61100e8185610fb2565b935061101e818560208601610fc2565b61102781610fea565b840191505092915050565b5f6020820190508181035f83015261104a8184610ffa565b905092915050565b5f80fd5b5f73ffffffffffffffffffffffffffffffffffffffff82169050919050565b5f61107f82611056565b9050919050565b61108f81611075565b8114611099575f80fd5b50565b5f813590506110aa81611086565b92915050565b5f819050919050565b6110c2816110b0565b81146110cc575f80fd5b50565b5f813590506110dd816110b9565b92915050565b5f80604083850312156110f9576110f8611052565b5b5f6111068582860161109c565b9250506020611117858286016110cf565b9150509250929050565b5f8115159050919050565b61113581611121565b82525050565b5f60208201905061114e5f83018461112c565b92915050565b61115d816110b0565b82525050565b5f6020820190506111765f830184611154565b92915050565b5f805f6060848603121561119357611192611052565b5b5f6111a08682870161109c565b93505060206111b18682870161109c565b92505060406111c2868287016110cf565b9150509250925092565b5f60ff82169050919050565b6111e1816111cc565b82525050565b5f6020820190506111fa5f8301846111d8565b92915050565b61120981611075565b82525050565b5f6020820190506112225f830184611200565b92915050565b5f6020828403121561123d5761123c611052565b5b5f61124a8482850161109c565b91505092915050565b5f806040838503121561126957611268611052565b5b5f6112768582860161109c565b92505060206112878582860161109c565b9150509250929050565b7f4e487b71000000000000000000000000000000000000000000000000000000005f52602260045260245ffd5b5f60028204905060018216806112d557607f821691505b6020821081036112e8576112e7611291565b5b50919050565b7f4e487b71000000000000000000000000000000000000000000000000000000005f52601160045260245ffd5b5f611325826110b0565b9150611330836110b0565b9250828201905080821115611348576113476112ee565b5b92915050565b7f4f6e6c79207468652062726964676520636f6e74726163742063616e206d696e5f8201527f7420746f6b656e73000000000000000000000000000000000000000000000000602082015250565b5f6113a8602883610fb2565b91506113b38261134e565b604082019050919050565b5f6020820190508181035f8301526113d58161139c565b9050919050565b7f45524332303a2064656372656173656420616c6c6f77616e63652062656c6f775f8201527f207a65726f000000000000000000000000000000000000000000000000000000602082015250565b5f611436602583610fb2565b9150611441826113dc565b604082019050919050565b5f6020820190508181035f8301526114638161142a565b9050919050565b7f4f776e61626c653a206e6577206f776e657220697320746865207a65726f20615f8201527f6464726573730000000000000000000000000000000000000000000000000000602082015250565b5f6114c4602683610fb2565b91506114cf8261146a565b604082019050919050565b5f6020820190508181035f8301526114f1816114b8565b9050919050565b7f45524332303a20617070726f76652066726f6d20746865207a65726f206164645f8201527f7265737300000000000000000000000000000000000000000000000000000000602082015250565b5f611552602483610fb2565b915061155d826114f8565b604082019050919050565b5f6020820190508181035f83015261157f81611546565b9050919050565b7f45524332303a20617070726f766520746f20746865207a65726f2061646472655f8201527f7373000000000000000000000000000000000000000000000000000000000000602082015250565b5f6115e0602283610fb2565b91506115eb82611586565b604082019050919050565b5f6020820190508181035f83015261160d816115d4565b9050919050565b7f45524332303a20696e73756666696369656e7420616c6c6f77616e63650000005f82015250565b5f611648601d83610fb2565b915061165382611614565b602082019050919050565b5f6020820190508181035f8301526116758161163c565b9050919050565b7f45524332303a207472616e736665722066726f6d20746865207a65726f2061645f8201527f6472657373000000000000000000000000000000000000000000000000000000602082015250565b5f6116d6602583610fb2565b91506116e18261167c565b604082019050919050565b5f6020820190508181035f830152611703816116ca565b9050919050565b7f45524332303a207472616e7366657220746f20746865207a65726f20616464725f8201527f6573730000000000000000000000000000000000000000000000000000000000602082015250565b5f611764602383610fb2565b915061176f8261170a565b604082019050919050565b5f6020820190508181035f83015261179181611758565b9050919050565b7f45524332303a207472616e7366657220616d6f756e74206578636565647320625f8201527f616c616e63650000000000000000000000000000000000000000000000000000602082015250565b5f6117f2602683610fb2565b91506117fd82611798565b604082019050919050565b5f6020820190508181035f83015261181f816117e6565b9050919050565b7f45524332303a206d696e7420746f20746865207a65726f2061646472657373005f82015250565b5f61185a601f83610fb2565b915061186582611826565b602082019050919050565b5f6020820190508181035f8301526118878161184e565b9050919050565b7f4f776e61626c653a2063616c6c6572206973206e6f7420746865206f776e65725f82015250565b5f6118c2602083610fb2565b91506118cd8261188e565b602082019050919050565b5f6020820190508181035f8301526118ef816118b6565b905091905056fea2646970667358221220454c03830e73bcda0b5dd5091af29963b8e2d26772f9e4a8f0c96568b1b1fa6a64736f6c63430008150033",
  "immutableReferences": {},
  "source": "// SPDX-License-Identifier: MIT\r\npragma solidity ^0.8.0;\r\n\r\nimport \"@openzeppelin/contracts/token/ERC20/ERC20.sol\";\r\nimport \"@openzeppelin/contracts/access/Ownable.sol\";\r\n\r\ncontract ContractTwo is ERC20, Ownable {\r\n    address public bridgeTwoAddress;\r\n\r\n    constructor() ERC20(\"ContractTwo\", \"C2\") {}\r\n\r\n    function setBridgeAddress(address _bridgeTwoAddress) external onlyOwner {\r\n        bridgeTwoAddress = _bridgeTwoAddress; // Set the bridge address here\r\n    }\r\n\r\n    function mint(address to, uint256 amount) external {\r\n        require(\r\n            msg.sender == bridgeTwoAddress,\r\n            \"Only the bridge contract can mint tokens\"\r\n        );\r\n        _mint(to, amount);\r\n    }\r\n}\r\n",
  "sourcePath": "C:\\Users\\shehr\\OneDrive\\Desktop\\bcvd4028\\Assignment1_BridgeContract\\contracts\\ContractTwo.sol",
  "compiler": {
    "name": "solc",
    "version": "0.8.21+commit.d9974bed.Emscripten.clang"
  },
  "schemaVersion": "3.4.16",
  "updatedAt": "2023-10-02T16:10:39.177Z",
  "devdoc": {
    "events": {
      "Approval(address,address,uint256)": {
        "details": "Emitted when the allowance of a `spender` for an `owner` is set by a call to {approve}. `value` is the new allowance."
      },
      "Transfer(address,address,uint256)": {
        "details": "Emitted when `value` tokens are moved from one account (`from`) to another (`to`). Note that `value` may be zero."
      }
    },
    "kind": "dev",
    "methods": {
      "allowance(address,address)": {
        "details": "See {IERC20-allowance}."
      },
      "approve(address,uint256)": {
        "details": "See {IERC20-approve}. NOTE: If `amount` is the maximum `uint256`, the allowance is not updated on `transferFrom`. This is semantically equivalent to an infinite approval. Requirements: - `spender` cannot be the zero address."
      },
      "balanceOf(address)": {
        "details": "See {IERC20-balanceOf}."
      },
      "decimals()": {
        "details": "Returns the number of decimals used to get its user representation. For example, if `decimals` equals `2`, a balance of `505` tokens should be displayed to a user as `5.05` (`505 / 10 ** 2`). Tokens usually opt for a value of 18, imitating the relationship between Ether and Wei. This is the default value returned by this function, unless it's overridden. NOTE: This information is only used for _display_ purposes: it in no way affects any of the arithmetic of the contract, including {IERC20-balanceOf} and {IERC20-transfer}."
      },
      "decreaseAllowance(address,uint256)": {
        "details": "Atomically decreases the allowance granted to `spender` by the caller. This is an alternative to {approve} that can be used as a mitigation for problems described in {IERC20-approve}. Emits an {Approval} event indicating the updated allowance. Requirements: - `spender` cannot be the zero address. - `spender` must have allowance for the caller of at least `subtractedValue`."
      },
      "increaseAllowance(address,uint256)": {
        "details": "Atomically increases the allowance granted to `spender` by the caller. This is an alternative to {approve} that can be used as a mitigation for problems described in {IERC20-approve}. Emits an {Approval} event indicating the updated allowance. Requirements: - `spender` cannot be the zero address."
      },
      "name()": {
        "details": "Returns the name of the token."
      },
      "owner()": {
        "details": "Returns the address of the current owner."
      },
      "renounceOwnership()": {
        "details": "Leaves the contract without owner. It will not be possible to call `onlyOwner` functions. Can only be called by the current owner. NOTE: Renouncing ownership will leave the contract without an owner, thereby disabling any functionality that is only available to the owner."
      },
      "symbol()": {
        "details": "Returns the symbol of the token, usually a shorter version of the name."
      },
      "totalSupply()": {
        "details": "See {IERC20-totalSupply}."
      },
      "transfer(address,uint256)": {
        "details": "See {IERC20-transfer}. Requirements: - `to` cannot be the zero address. - the caller must have a balance of at least `amount`."
      },
      "transferFrom(address,address,uint256)": {
        "details": "See {IERC20-transferFrom}. Emits an {Approval} event indicating the updated allowance. This is not required by the EIP. See the note at the beginning of {ERC20}. NOTE: Does not update the allowance if the current allowance is the maximum `uint256`. Requirements: - `from` and `to` cannot be the zero address. - `from` must have a balance of at least `amount`. - the caller must have allowance for ``from``'s tokens of at least `amount`."
      },
      "transferOwnership(address)": {
        "details": "Transfers ownership of the contract to a new account (`newOwner`). Can only be called by the current owner."
      }
    },
    "version": 1
  },
  "userdoc": {
    "kind": "user",
    "methods": {},
    "version": 1
  }
}