{
  "contractName": "Lab3",
  "abi": [
    {
      "inputs": [
        {
          "internalType": "address",
          "name": "_tokenAddress",
          "type": "address"
        }
      ],
      "stateMutability": "nonpayable",
      "type": "constructor"
    },
    {
      "inputs": [],
      "name": "owner",
      "outputs": [
        {
          "internalType": "address",
          "name": "",
          "type": "address"
        }
      ],
      "stateMutability": "view",
      "type": "function"
    },
    {
      "inputs": [],
      "name": "token",
      "outputs": [
        {
          "internalType": "contract IERC20",
          "name": "",
          "type": "address"
        }
      ],
      "stateMutability": "view",
      "type": "function"
    },
    {
      "inputs": [
        {
          "internalType": "uint256",
          "name": "amount",
          "type": "uint256"
        }
      ],
      "name": "deposit",
      "outputs": [],
      "stateMutability": "nonpayable",
      "type": "function"
    },
    {
      "inputs": [
        {
          "internalType": "uint256",
          "name": "amount",
          "type": "uint256"
        }
      ],
      "name": "borrow",
      "outputs": [],
      "stateMutability": "nonpayable",
      "type": "function"
    }
  ],
  "bytecode": "0x608060405234801561001057600080fd5b506040516109ea3803806109ea8339818101604052810190610032919061011c565b336000806101000a81548173ffffffffffffffffffffffffffffffffffffffff021916908373ffffffffffffffffffffffffffffffffffffffff16021790555080600160006101000a81548173ffffffffffffffffffffffffffffffffffffffff021916908373ffffffffffffffffffffffffffffffffffffffff16021790555050610149565b600080fd5b600073ffffffffffffffffffffffffffffffffffffffff82169050919050565b60006100e9826100be565b9050919050565b6100f9816100de565b811461010457600080fd5b50565b600081519050610116816100f0565b92915050565b600060208284031215610132576101316100b9565b5b600061014084828501610107565b91505092915050565b610892806101586000396000f3fe608060405234801561001057600080fd5b506004361061004c5760003560e01c80638da5cb5b14610051578063b6b55f251461006f578063c5ebeaec1461008b578063fc0c546a146100a7575b600080fd5b6100596100c5565b604051610066919061043c565b60405180910390f35b61008960048036038101906100849190610492565b6100e9565b005b6100a560048036038101906100a09190610492565b610210565b005b6100af6103d5565b6040516100bc919061051e565b60405180910390f35b60008054906101000a900473ffffffffffffffffffffffffffffffffffffffff1681565b6000811161012c576040517f08c379a0000000000000000000000000000000000000000000000000000000008152600401610123906105bc565b60405180910390fd5b600160009054906101000a900473ffffffffffffffffffffffffffffffffffffffff1673ffffffffffffffffffffffffffffffffffffffff166323b872dd3330846040518463ffffffff1660e01b815260040161018b939291906105eb565b6020604051808303816000875af11580156101aa573d6000803e3d6000fd5b505050506040513d601f19601f820116820180604052508101906101ce919061065a565b61020d576040517f08c379a0000000000000000000000000000000000000000000000000000000008152600401610204906106d3565b60405180910390fd5b50565b60008111610253576040517f08c379a000000000000000000000000000000000000000000000000000000000815260040161024a90610765565b60405180910390fd5b80600160009054906101000a900473ffffffffffffffffffffffffffffffffffffffff1673ffffffffffffffffffffffffffffffffffffffff166370a08231306040518263ffffffff1660e01b81526004016102af919061043c565b602060405180830381865afa1580156102cc573d6000803e3d6000fd5b505050506040513d601f19601f820116820180604052508101906102f0919061079a565b1015610331576040517f08c379a000000000000000000000000000000000000000000000000000000000815260040161032890610813565b60405180910390fd5b600160009054906101000a900473ffffffffffffffffffffffffffffffffffffffff1673ffffffffffffffffffffffffffffffffffffffff1663a9059cbb33836040518363ffffffff1660e01b815260040161038e929190610833565b6020604051808303816000875af11580156103ad573d6000803e3d6000fd5b505050506040513d601f19601f820116820180604052508101906103d1919061065a565b5050565b600160009054906101000a900473ffffffffffffffffffffffffffffffffffffffff1681565b600073ffffffffffffffffffffffffffffffffffffffff82169050919050565b6000610426826103fb565b9050919050565b6104368161041b565b82525050565b6000602082019050610451600083018461042d565b92915050565b600080fd5b6000819050919050565b61046f8161045c565b811461047a57600080fd5b50565b60008135905061048c81610466565b92915050565b6000602082840312156104a8576104a7610457565b5b60006104b68482850161047d565b91505092915050565b6000819050919050565b60006104e46104df6104da846103fb565b6104bf565b6103fb565b9050919050565b60006104f6826104c9565b9050919050565b6000610508826104eb565b9050919050565b610518816104fd565b82525050565b6000602082019050610533600083018461050f565b92915050565b600082825260208201905092915050565b7f4465706f73697420616d6f756e74206d7573742062652067726561746572207460008201527f68616e2030000000000000000000000000000000000000000000000000000000602082015250565b60006105a6602583610539565b91506105b18261054a565b604082019050919050565b600060208201905081810360008301526105d581610599565b9050919050565b6105e58161045c565b82525050565b6000606082019050610600600083018661042d565b61060d602083018561042d565b61061a60408301846105dc565b949350505050565b60008115159050919050565b61063781610622565b811461064257600080fd5b50565b6000815190506106548161062e565b92915050565b6000602082840312156106705761066f610457565b5b600061067e84828501610645565b91505092915050565b7f5472616e73666572206661696c65640000000000000000000000000000000000600082015250565b60006106bd600f83610539565b91506106c882610687565b602082019050919050565b600060208201905081810360008301526106ec816106b0565b9050919050565b7f426f72726f7720616d6f756e74206d757374206265206772656174657220746860008201527f616e203000000000000000000000000000000000000000000000000000000000602082015250565b600061074f602483610539565b915061075a826106f3565b604082019050919050565b6000602082019050818103600083015261077e81610742565b9050919050565b60008151905061079481610466565b92915050565b6000602082840312156107b0576107af610457565b5b60006107be84828501610785565b91505092915050565b7f496e73756666696369656e742062616c616e6365000000000000000000000000600082015250565b60006107fd601483610539565b9150610808826107c7565b602082019050919050565b6000602082019050818103600083015261082c816107f0565b9050919050565b6000604082019050610848600083018561042d565b61085560208301846105dc565b939250505056fea26469706673582212209faad7d59404c91b9738e90ca5ac177b04e5002433ae97cfba93b28b4cac6a2464736f6c63430008120033",
  "immutableReferences": {},
  "source": "// SPDX-License-Identifier: MIT\npragma solidity ^0.8.18;\n\nimport \"@openzeppelin/contracts/token/ERC20/ERC20.sol\";\n\ncontract Lab3 {\n    address public owner;\n    IERC20 public token;\n\n    constructor(address _tokenAddress) {\n        owner = msg.sender;\n        token = IERC20(_tokenAddress);\n    }\n\n    function deposit(uint256 amount) external {\n        require(amount > 0, \"Deposit amount must be greater than 0\");\n        require(token.transferFrom(msg.sender, address(this), amount), \"Transfer failed\");\n    }\n\n    function borrow(uint256 amount) external {\n        require(amount > 0, \"Borrow amount must be greater than 0\");\n        require(token.balanceOf(address(this)) >= amount, \"Insufficient balance\");\n\n        token.transfer(msg.sender, amount);\n    }\n}\n",
  "sourcePath": "C:\\Users\\shehr\\OneDrive\\Desktop\\bcvd4028\\Lab3_UT\\contracts\\Lab3.sol",
  "compiler": {
    "name": "solc",
    "version": "0.8.18+commit.87f61d96.Emscripten.clang"
  },
  "schemaVersion": "3.4.16",
  "updatedAt": "2023-09-29T16:16:21.332Z",
  "devdoc": {
    "kind": "dev",
    "methods": {},
    "version": 1
  },
  "userdoc": {
    "kind": "user",
    "methods": {},
    "version": 1
  }
}