{
  "contractName": "UnitTestingLab",
  "abi": [
    {
      "inputs": [],
      "stateMutability": "nonpayable",
      "type": "constructor"
    },
    {
      "inputs": [
        {
          "internalType": "address",
          "name": "",
          "type": "address"
        }
      ],
      "name": "balances",
      "outputs": [
        {
          "internalType": "uint256",
          "name": "",
          "type": "uint256"
        }
      ],
      "stateMutability": "view",
      "type": "function",
      "constant": true
    },
    {
      "inputs": [],
      "name": "owner",
      "outputs": [
        {
          "internalType": "address",
          "name": "",
          "type": "address"
        }
      ],
      "stateMutability": "view",
      "type": "function",
      "constant": true
    },
    {
      "inputs": [],
      "name": "depositFunds",
      "outputs": [],
      "stateMutability": "payable",
      "type": "function",
      "payable": true
    },
    {
      "inputs": [
        {
          "internalType": "uint256",
          "name": "amount",
          "type": "uint256"
        }
      ],
      "name": "borrowFunds",
      "outputs": [],
      "stateMutability": "payable",
      "type": "function",
      "payable": true
    }
  ],
  "bytecode": "0x608060405234801561001057600080fd5b50336000806101000a81548173ffffffffffffffffffffffffffffffffffffffff021916908373ffffffffffffffffffffffffffffffffffffffff16021790555061069d806100606000396000f3fe60806040526004361061003f5760003560e01c806304c08fbd1461004457806327e235e3146100605780638da5cb5b1461009d578063e2c41dbc146100c8575b600080fd5b61005e60048036038101906100599190610349565b6100d2565b005b34801561006c57600080fd5b50610087600480360381019061008291906103d4565b610237565b6040516100949190610410565b60405180910390f35b3480156100a957600080fd5b506100b261024f565b6040516100bf919061043a565b60405180910390f35b6100d0610273565b005b60008111610115576040517f08c379a000000000000000000000000000000000000000000000000000000000815260040161010c906104d8565b60405180910390fd5b80600160003373ffffffffffffffffffffffffffffffffffffffff1673ffffffffffffffffffffffffffffffffffffffff168152602001908152602001600020541015610197576040517f08c379a000000000000000000000000000000000000000000000000000000000815260040161018e90610544565b60405180910390fd5b3373ffffffffffffffffffffffffffffffffffffffff166108fc829081150290604051600060405180830381858888f193505050501580156101dd573d6000803e3d6000fd5b5080600160003373ffffffffffffffffffffffffffffffffffffffff1673ffffffffffffffffffffffffffffffffffffffff168152602001908152602001600020600082825461022d9190610593565b9250508190555050565b60016020528060005260406000206000915090505481565b60008054906101000a900473ffffffffffffffffffffffffffffffffffffffff1681565b600034116102b6576040517f08c379a00000000000000000000000000000000000000000000000000000000081526004016102ad90610613565b60405180910390fd5b34600160003373ffffffffffffffffffffffffffffffffffffffff1673ffffffffffffffffffffffffffffffffffffffff16815260200190815260200160002060008282546103059190610633565b92505081905550565b600080fd5b6000819050919050565b61032681610313565b811461033157600080fd5b50565b6000813590506103438161031d565b92915050565b60006020828403121561035f5761035e61030e565b5b600061036d84828501610334565b91505092915050565b600073ffffffffffffffffffffffffffffffffffffffff82169050919050565b60006103a182610376565b9050919050565b6103b181610396565b81146103bc57600080fd5b50565b6000813590506103ce816103a8565b92915050565b6000602082840312156103ea576103e961030e565b5b60006103f8848285016103bf565b91505092915050565b61040a81610313565b82525050565b60006020820190506104256000830184610401565b92915050565b61043481610396565b82525050565b600060208201905061044f600083018461042b565b92915050565b600082825260208201905092915050565b7f426f72726f77656420616d6f756e74206d75737420626520677265617465722060008201527f7468616e207a65726f0000000000000000000000000000000000000000000000602082015250565b60006104c2602983610455565b91506104cd82610466565b604082019050919050565b600060208201905081810360008301526104f1816104b5565b9050919050565b7f496e73756666696369656e742062616c616e6365000000000000000000000000600082015250565b600061052e601483610455565b9150610539826104f8565b602082019050919050565b6000602082019050818103600083015261055d81610521565b9050919050565b7f4e487b7100000000000000000000000000000000000000000000000000000000600052601160045260246000fd5b600061059e82610313565b91506105a983610313565b92508282039050818111156105c1576105c0610564565b5b92915050565b7f596f75206d7573742073656e6420457468657220746f206465706f7369740000600082015250565b60006105fd601e83610455565b9150610608826105c7565b602082019050919050565b6000602082019050818103600083015261062c816105f0565b9050919050565b600061063e82610313565b915061064983610313565b925082820190508082111561066157610660610564565b5b9291505056fea264697066735822122058e7ac539574218a7a1704f45d0daadc72a34842da34b2fb9d97fa09136abe5164736f6c63430008120033",
  "immutableReferences": {},
  "source": "// SPDX-License-Identifier: MIT\n// pragma solidity ^0.8.18;\n\n// contract UnitTestingLab {\n//     address public manager;\n//     uint256 public vaultBalance;\n\n//     constructor() {\n//         manager = msg.sender;\n//     }\n\n//     modifier onlyManager() {\n//         require(msg.sender == manager, \"Unauthorized\");\n//         _;\n//     }\n\n//     function getVaultBalance() public view returns (uint256) {\n//         return address(this).balance;\n//     }\n\n//     function depositFunds() public payable  {\n//         require(msg.value > 0, \"Please provide Ether for deposit\");\n//         vaultBalance += msg.value;\n//     }\n\n//     function borrowFunds(uint256 amount) public  {\n//         require(amount > 0, \"Withdrawal amount must be greater than zero\");\n//         require(address(this).balance >= amount, \"Insufficient balance\");\n\n//         payable(msg.sender).transfer(amount);\n//         vaultBalance -= amount;\n//     }\n\n//     function emptyVault() public onlyManager {\n//         require(address(this).balance > 0, \"Vault is empty\");\n//         payable(manager).transfer(address(this).balance);\n//     }\n// }\npragma solidity ^0.8.18;\n\ncontract UnitTestingLab {\n    address public owner;\n    mapping(address => uint256) public balances;\n\n    constructor() {\n        owner = msg.sender;\n    }\n\n    modifier onlyOwner() {\n        require(msg.sender == owner, \"Only the owner can perform this action\");\n        _;\n    }\n\n    function depositFunds() public payable {\n        require(msg.value > 0, \"You must send Ether to deposit\");\n        balances[msg.sender] += msg.value;\n    }\n\n    function borrowFunds(uint256 amount) public payable {\n        require(amount > 0, \"Borrowed amount must be greater than zero\");\n        require(balances[msg.sender] >= amount, \"Insufficient balance\");\n\n        payable(msg.sender).transfer(amount);\n        balances[msg.sender] -= amount;\n    }\n}\n\n",
  "sourcePath": "C:\\Users\\shehr\\OneDrive\\Desktop\\bcvd4028\\Lab3_UT\\contracts\\UnitTestingLab.sol",
  "compiler": {
    "name": "solc",
    "version": "0.8.18+commit.87f61d96.Emscripten.clang"
  },
  "schemaVersion": "3.4.16",
  "updatedAt": "2023-09-29T20:52:12.957Z",
  "networkType": "ethereum",
  "devdoc": {
    "kind": "dev",
    "methods": {},
    "version": 1
  },
  "userdoc": {
    "kind": "user",
    "methods": {},
    "version": 1
  }
}