{
  "contractName": "BridgeOne",
  "abi": [
    {
      "inputs": [
        {
          "internalType": "address",
          "name": "_contractTwo",
          "type": "address"
        }
      ],
      "stateMutability": "nonpayable",
      "type": "constructor"
    },
    {
      "anonymous": false,
      "inputs": [
        {
          "indexed": true,
          "internalType": "address",
          "name": "sender",
          "type": "address"
        },
        {
          "indexed": false,
          "internalType": "uint256",
          "name": "amount",
          "type": "uint256"
        }
      ],
      "name": "TokensDeposited",
      "type": "event"
    },
    {
      "anonymous": false,
      "inputs": [
        {
          "indexed": true,
          "internalType": "address",
          "name": "recipient",
          "type": "address"
        },
        {
          "indexed": false,
          "internalType": "uint256",
          "name": "amount",
          "type": "uint256"
        }
      ],
      "name": "TokensWithdrawn",
      "type": "event"
    },
    {
      "inputs": [],
      "name": "bridgeOne",
      "outputs": [
        {
          "internalType": "address",
          "name": "",
          "type": "address"
        }
      ],
      "stateMutability": "view",
      "type": "function"
    },
    {
      "inputs": [],
      "name": "contractTwo",
      "outputs": [
        {
          "internalType": "contract ContractTwo",
          "name": "",
          "type": "address"
        }
      ],
      "stateMutability": "view",
      "type": "function"
    },
    {
      "inputs": [
        {
          "internalType": "address",
          "name": "",
          "type": "address"
        }
      ],
      "name": "userDeposits",
      "outputs": [
        {
          "internalType": "uint256",
          "name": "",
          "type": "uint256"
        }
      ],
      "stateMutability": "view",
      "type": "function"
    },
    {
      "inputs": [
        {
          "internalType": "address",
          "name": "_bridgeOne",
          "type": "address"
        }
      ],
      "name": "setBridgeOne",
      "outputs": [],
      "stateMutability": "nonpayable",
      "type": "function"
    },
    {
      "inputs": [
        {
          "internalType": "uint256",
          "name": "amount",
          "type": "uint256"
        }
      ],
      "name": "deposit",
      "outputs": [],
      "stateMutability": "nonpayable",
      "type": "function"
    },
    {
      "inputs": [
        {
          "internalType": "uint256",
          "name": "amount",
          "type": "uint256"
        }
      ],
      "name": "withdraw",
      "outputs": [],
      "stateMutability": "nonpayable",
      "type": "function"
    }
  ],
  "bytecode": "0x608060405234801561000f575f80fd5b50604051610bfd380380610bfd833981810160405281019061003191906100d4565b805f806101000a81548173ffffffffffffffffffffffffffffffffffffffff021916908373ffffffffffffffffffffffffffffffffffffffff160217905550506100ff565b5f80fd5b5f73ffffffffffffffffffffffffffffffffffffffff82169050919050565b5f6100a38261007a565b9050919050565b6100b381610099565b81146100bd575f80fd5b50565b5f815190506100ce816100aa565b92915050565b5f602082840312156100e9576100e8610076565b5b5f6100f6848285016100c0565b91505092915050565b610af18061010c5f395ff3fe608060405234801561000f575f80fd5b5060043610610060575f3560e01c80630ba36dcd146100645780632e1a7d4d146100945780634946ce96146100b0578063693e297e146100cc578063909e87ca146100ea578063b6b55f2514610108575b5f80fd5b61007e6004803603810190610079919061066f565b610124565b60405161008b91906106b2565b60405180910390f35b6100ae60048036038101906100a991906106f5565b610139565b005b6100ca60048036038101906100c5919061066f565b6103c5565b005b6100d4610408565b6040516100e1919061077b565b60405180910390f35b6100f261042b565b6040516100ff91906107a3565b60405180910390f35b610122600480360381019061011d91906106f5565b610450565b005b6002602052805f5260405f205f915090505481565b5f73ffffffffffffffffffffffffffffffffffffffff1660015f9054906101000a900473ffffffffffffffffffffffffffffffffffffffff1673ffffffffffffffffffffffffffffffffffffffff16036101c8576040517f08c379a00000000000000000000000000000000000000000000000000000000081526004016101bf90610816565b60405180910390fd5b8060025f3373ffffffffffffffffffffffffffffffffffffffff1673ffffffffffffffffffffffffffffffffffffffff1681526020019081526020015f20541015610248576040517f08c379a000000000000000000000000000000000000000000000000000000000815260040161023f9061087e565b60405180910390fd5b8060025f3373ffffffffffffffffffffffffffffffffffffffff1673ffffffffffffffffffffffffffffffffffffffff1681526020019081526020015f205f82825461029491906108c9565b925050819055505f8054906101000a900473ffffffffffffffffffffffffffffffffffffffff1673ffffffffffffffffffffffffffffffffffffffff1663a9059cbb33836040518363ffffffff1660e01b81526004016102f59291906108fc565b6020604051808303815f875af1158015610311573d5f803e3d5ffd5b505050506040513d601f19601f820116820180604052508101906103359190610958565b610374576040517f08c379a000000000000000000000000000000000000000000000000000000000815260040161036b906109cd565b60405180910390fd5b3373ffffffffffffffffffffffffffffffffffffffff167f6352c5382c4a4578e712449ca65e83cdb392d045dfcf1cad9615189db2da244b826040516103ba91906106b2565b60405180910390a250565b8060015f6101000a81548173ffffffffffffffffffffffffffffffffffffffff021916908373ffffffffffffffffffffffffffffffffffffffff16021790555050565b5f8054906101000a900473ffffffffffffffffffffffffffffffffffffffff1681565b60015f9054906101000a900473ffffffffffffffffffffffffffffffffffffffff1681565b5f8111610492576040517f08c379a000000000000000000000000000000000000000000000000000000000815260040161048990610a35565b60405180910390fd5b5f8054906101000a900473ffffffffffffffffffffffffffffffffffffffff1673ffffffffffffffffffffffffffffffffffffffff166323b872dd3330846040518463ffffffff1660e01b81526004016104ee93929190610a53565b6020604051808303815f875af115801561050a573d5f803e3d5ffd5b505050506040513d601f19601f8201168201806040525081019061052e9190610958565b61056d576040517f08c379a0000000000000000000000000000000000000000000000000000000008152600401610564906109cd565b60405180910390fd5b8060025f3373ffffffffffffffffffffffffffffffffffffffff1673ffffffffffffffffffffffffffffffffffffffff1681526020019081526020015f205f8282546105b99190610a88565b925050819055503373ffffffffffffffffffffffffffffffffffffffff167f59062170a285eb80e8c6b8ced60428442a51910635005233fc4ce084a475845e8260405161060691906106b2565b60405180910390a250565b5f80fd5b5f73ffffffffffffffffffffffffffffffffffffffff82169050919050565b5f61063e82610615565b9050919050565b61064e81610634565b8114610658575f80fd5b50565b5f8135905061066981610645565b92915050565b5f6020828403121561068457610683610611565b5b5f6106918482850161065b565b91505092915050565b5f819050919050565b6106ac8161069a565b82525050565b5f6020820190506106c55f8301846106a3565b92915050565b6106d48161069a565b81146106de575f80fd5b50565b5f813590506106ef816106cb565b92915050565b5f6020828403121561070a57610709610611565b5b5f610717848285016106e1565b91505092915050565b5f819050919050565b5f61074361073e61073984610615565b610720565b610615565b9050919050565b5f61075482610729565b9050919050565b5f6107658261074a565b9050919050565b6107758161075b565b82525050565b5f60208201905061078e5f83018461076c565b92915050565b61079d81610634565b82525050565b5f6020820190506107b65f830184610794565b92915050565b5f82825260208201905092915050565b7f4272696467654f6e652061646472657373206e6f7420736574000000000000005f82015250565b5f6108006019836107bc565b915061080b826107cc565b602082019050919050565b5f6020820190508181035f83015261082d816107f4565b9050919050565b7f496e73756666696369656e742062616c616e63650000000000000000000000005f82015250565b5f6108686014836107bc565b915061087382610834565b602082019050919050565b5f6020820190508181035f8301526108958161085c565b9050919050565b7f4e487b71000000000000000000000000000000000000000000000000000000005f52601160045260245ffd5b5f6108d38261069a565b91506108de8361069a565b92508282039050818111156108f6576108f561089c565b5b92915050565b5f60408201905061090f5f830185610794565b61091c60208301846106a3565b9392505050565b5f8115159050919050565b61093781610923565b8114610941575f80fd5b50565b5f815190506109528161092e565b92915050565b5f6020828403121561096d5761096c610611565b5b5f61097a84828501610944565b91505092915050565b7f5472616e73666572206661696c656400000000000000000000000000000000005f82015250565b5f6109b7600f836107bc565b91506109c282610983565b602082019050919050565b5f6020820190508181035f8301526109e4816109ab565b9050919050565b7f416d6f756e74206d7573742062652067726561746572207468616e207a65726f5f82015250565b5f610a1f6020836107bc565b9150610a2a826109eb565b602082019050919050565b5f6020820190508181035f830152610a4c81610a13565b9050919050565b5f606082019050610a665f830186610794565b610a736020830185610794565b610a8060408301846106a3565b949350505050565b5f610a928261069a565b9150610a9d8361069a565b9250828201905080821115610ab557610ab461089c565b5b9291505056fea2646970667358221220424dd496b32acc5d44fdc786776aea0ed2b90dcc5974acbac3cf08cade0dc16064736f6c63430008150033",
  "immutableReferences": {},
  "source": "pragma solidity ^0.8.0;\r\nimport \"./ContractTwo.sol\";\r\ncontract BridgeOne {\r\n    ContractTwo public contractTwo;\r\n    address public bridgeOne;\r\n    mapping(address => uint256) public userDeposits;\r\n    event TokensDeposited(address indexed sender, uint256 amount);\r\n    event TokensWithdrawn(address indexed recipient, uint256 amount);\r\n\r\n    constructor(address _contractTwo) {\r\n        contractTwo = ContractTwo(_contractTwo);\r\n    }\r\n    \r\n    function setBridgeOne(address _bridgeOne) external {\r\n        bridgeOne = _bridgeOne;\r\n    }\r\n\r\n    function deposit(uint256 amount) external {\r\n        require(amount > 0, \"Amount must be greater than zero\");\r\n        require(contractTwo.transferFrom(msg.sender, address(this), amount), \"Transfer failed\");\r\n        userDeposits[msg.sender] += amount;\r\n        emit TokensDeposited(msg.sender, amount);\r\n    }\r\n\r\n    function withdraw(uint256 amount) external {\r\n        require(bridgeOne != address(0), \"BridgeOne address not set\");\r\n        require(userDeposits[msg.sender] >= amount, \"Insufficient balance\");\r\n        userDeposits[msg.sender] -= amount;\r\n        require(contractTwo.transfer(msg.sender, amount), \"Transfer failed\");\r\n        emit TokensWithdrawn(msg.sender, amount);\r\n    }\r\n}\r\n",
  "sourcePath": "C:\\Users\\shehr\\OneDrive\\Desktop\\bcvd4028\\Assignment1_BridgeContract\\contracts\\BridgeTwo.sol",
  "compiler": {
    "name": "solc",
    "version": "0.8.21+commit.d9974bed.Emscripten.clang"
  },
  "schemaVersion": "3.4.16",
  "updatedAt": "2023-10-01T08:37:44.440Z",
  "devdoc": {
    "kind": "dev",
    "methods": {},
    "version": 1
  },
  "userdoc": {
    "kind": "user",
    "methods": {},
    "version": 1
  }
}